:020000040800F2
:10000000600C0020B91200083D1200083F120008E1
:1000100000000000000000000000000000000000E0
:100020000000000000000000000000004112000875
:100030000000000000000000431200084512000804
:10004000A7060008330700088B0B00083B0E0008CA
:10005000231000085711000897120008A312000887
:10006000D5120008D7120008D9120008DB120008C8
:10007000DD120008DF120008E11200084D1200082E
:10008000E3120008E512000800000000E712000873
:10009000E9120008EB120008ED120008EF12000848
:1000A000F1120008F3120008F5120008F712000818
:1000B000F912000800000000FB120008FEB507005E
:1000C000A84C3878C0074DD58025AD0260680C215A
:1000D0000140042907D060680C21014008290AD199
:1000E0006068C00307D5206805403BD078680028C9
:1000F00038D10120FEBD7968012902D12068690844
:100100000BE09948994A00290AD0052908D12068AE
:100110006900014321602068D1430143216005E06B
:1001200021680A4022602168084020607868002821
:100130000CD000F071FA06002068284012D100F0BF
:100140006BFA801B6528F7D30320FEBD00F064FA2C
:1001500006002068284005D000F05EFA801B652864
:10016000F7D3F1E7022000903868022101401AD04D
:10017000F825ED4360680C21014007D060680C2130
:100180000140082926D16068C00323D420680221D9
:10019000014002D0F8680128ABD1206805403869D9
:1001A000C000284320603878000750D5F86900283F
:1001B000606A3CD001210143616200F02DFA050024
:1001C000606A0099014042D100F026FA401B0228E3
:1001D000F6D9B9E7F8680028206818D00121014352
:1001E000216000F019FA3E000700206800990140E4
:1001F00005D100F011FAC01B0228F6D9A4E7206847
:1002000005403069C000284320603700CBE701215A
:100210008843206000F000FA050020680099014042
:10022000C1D000F0F9F9401B0228F6D98CE7012172
:100230008843606200F0F0F90500606A00990140AF
:1002400005D000F0E9F9401B0228F6D97CE7042626
:100250003868304068D000200290B006E169014063
:1002600008D1E1690143E161E16908400190019829
:100270000120029078480068C00512D476480068D2
:10028000A10D01437448016000F0C6F905007248F1
:100290000068C00505D400F0BFF9401B6528F6D3FF
:1002A00052E7B968012901D1206A0CE00420C0435B
:1002B0000122D243002909D0052907D1206A304301
:1002C0002062206A01210143216205E0216A0A407F
:1002D0002262216A08402062AB480190B868002879
:1002E0000DD000F099F90500206A0099014014D161
:1002F00000F092F9401B01998842F5D324E700F001
:100300008BF90500206A0099014006D000F084F9BD
:10031000401B01998842F5D316E70298002803D0C4
:10032000E0699A490140E1613878C00627D57869CB
:10033000F825ED43012840D1606B06436663606B8E
:1003400001210143616300F067F93E000700606B23
:10035000009901400CD100F05FF9C01B0228F6D9CA
:10036000F2E600BF00100240FFFFFBFFFFFFFEFFB1
:10037000606B0540B069C000284360633700386A8D
:10038000002867D061680C220A40082A00D1B0E634
:100390008025AD048E49022820684DD1014021609E
:1003A00000F03AF93E0007002068284026D000F00F
:1003B00033F9C01B0228F7D9C6E60421C943884295
:1003C000606B08D1B0436063606B0540B869C000E2
:1003D00028436063D3E706436663606B012188436B
:1003E000606300F019F90500606B00990140C6D008
:1003F00000F012F9401B0228F6D9A5E6E06A0F21A9
:100400008843F16A0143E162606872490140B06A61
:100410000843716A014361602068690801432160F3
:1004200000F0FAF806002068284013D100F0F4F834
:10043000801B0228F7D987E60140216000F0ECF824
:1004400006002068284005D000F0E6F8801B02284E
:10045000F7D979E60020FEBD00700040F3B581B009
:100460000127FF4301245C4909682140029A914217
:100470000AD259490A683A40029B13430B60096843
:100480002140029A914263D10090544D022000997C
:100490000968014006D06968F0229143009A926889
:1004A0000A436A6000990968214041D0009949686F
:1004B000012902D12868800303E0022903D12868BA
:1004C000800103D444E02A68104041D068680322C8
:1004D00090430143696000F09FF80600009840686F
:1004E00001280CD168680C210140042920D000F0BB
:1004F00093F8801B24498842F4D30320FEBD0228D0
:100500000BD168680C210140082911D000F084F853
:10051000801B1D498842F4D3EFE768680C21014035
:1005200006D000F079F8801B17498842F5D3E4E73C
:10053000294802990268224091420BD201680F407B
:10054000029939430160006804400298844201D056
:100550000120FEBD00980078400706D56868204954
:1005600001400098C0680843686000F011F81D4918
:100570006A681206120F895CC8401B490860002097
:1005800000F050F80020FEBD89130000FFFFFFEFD0
:10059000164B196816480C220A40082A00D07047EA
:1005A00030B50F2214A48D0C1540645D9B6AC903FD
:1005B00007D500BF14A11A40895C00F059F86043C8
:1005C00030BD20000B49484330BD074800687047E4
:1005D000FFFFFFFEFFFFC2FF0020024000100240AD
:1005E000FFF8FFFFB8110008540800200410024073
:1005F00000127A0000093D000203040506070809FD
:100600000A0B0C0D0E0F101001020304050607085B
:10061000090A0B0C0D0E0F1001480068704700BF4F
:100620005808002010B50400FFF7CFFFFA21890019
:1006300000F01EF800F060F8002221000020C04306
:1006400000F04FF8002010BDCA0F00D0494203103F
:100650005A400DD004B500D3404200F009F8009A8A
:10066000D20701D34942124200D5404204BD0000E6
:10067000094214D088420FD30122030C01D1000497
:100680001204002300185B418B4200D35B1A5241D5
:10069000F8D319001000704701000020704708B51A
:1006A00000F046F808BDFEE710B5C200182313405D
:1006B000FF249C40E2438907090E9940030007D5B7
:1006C000174B0007000F083880088000181803E057
:1006D00014489B089B00C01803681A40114301602E
:1006E00010BD80B5FFF7E0FF01BD0121C006C00EBF
:1006F00081400D480160704710B5401E80214904BB
:10070000884201D3012010BD084C60600321002005
:10071000C043FFF7C9FF0020A0600721216010BD82
:100720001CED00E000E400E000E100E010E000E08B
:100730007047FEE710B5040001D1012010BD3D2037
:10074000205C002804D13C216054200000F0F9F91D
:1007500009E000680121C2680A43C26002681143CF
:1007600001600020704702203D216054211D206857
:1007700000F01DF901203D216054002010BDF8B5A6
:1007800004002068002502260169314015D0C168A7
:10079000314012D00221C9430161012121778069D2
:1007A000800703D0200000F0EDF905E0200000F004
:1007B000EAF9200000F0E8F92577206804270169AC
:1007C000394016D0C168394013D00421C9430161B2
:1007D00026778069C0218900014003D0200000F005
:1007E000D1F905E0200000F0CEF9200000F0CCF9AE
:1007F0002577206808260169314014D0C16831404E
:1008000011D00821C94301612777C069800703D04F
:10081000200000F0B7F905E0200000F0B4F9200056
:1008200000F0B2F925772068102102690A4016D03D
:10083000C268114013D01021C94301612677C069F5
:10084000C0218900014003D0200000F09BF905E0A1
:10085000200000F098F9200000F096F92577206834
:10086000012102690A4008D0C268114005D0012167
:10087000C9430161200000F037FA20688021026935
:100880000A4008D0C268114005D08021C9430161E7
:10089000200000F0C5FA2068402102690A4008D013
:1008A000C268114005D04021C9430161200000F019
:1008B000B8FA2068202102690A4008D0C2681140B5
:1008C00005D02021C9430161200000F0ABFAF1BD41
:1008D00070B504003C20205C012801D1022070BDCD
:1008E00026003C360125357002203D22A0542068A8
:1008F00082684E4B134083600868002845D010285A
:1009000045D0202845D0302845D0402836D0502822
:1009100026D060282BD070280CD02A03904203D018
:100920005200904210D03AE020688168072291433B
:10093000816034E0CB684A688968206800F0B2F8CA
:1009400020688168772208E0CB684A688968206857
:1009500000F0A8F820688168AA030A4382601EE0BC
:10096000CA684968206800F071F8502114E0CA682C
:100970004968206800F07BF860210DE0CA6849688A
:10098000206800F063F8402106E0002104E0102117
:1009900002E0202100E03021206800F07BF800E038
:1009A00000003D2025540020307070BD0000F0B5DF
:1009B00006681F4A1F4B8024E4051F4DA84203D040
:1009C000A04201D0984208D17027BE4337004E683C
:1009D0003E43A8420ED0A0420CD098420AD0174BFA
:1009E000984207D0904205D0154B984202D0164B42
:1009F000984203D1134B3340CE681E4380239E435D
:100A00004B69334303608B68C3620B688362A842FF
:100A100007D0904205D00A4A904202D00A4A90423A
:100A200001D10969016301214161F0BD8800FFFF27
:100A30000040014000040040002C01400020004024
:100A400000440140FFFCFFFF0048014030B5036A4D
:100A5000046A0125AC4304628469F025AC431201A9
:100A6000224382610A2293431943016230BD30B5AB
:100A7000036A1024A34303628469036A0E4D254070
:100A800012032A438261A0229343090119430162A0
:100A900030BD0000826870239A430A430721114346
:100AA0008160704730B58468044D254029430A436E
:100AB00019021143816030BDFF0FFFFFFF00FFFFF0
:100AC00081B001202B490A6802430A600A6810407D
:100AD00000900098802040054A6802434A604968B7
:100AE00008400090009801B0704710B586B004002F
:100AF0001422002101A800F096F920681E498842BE
:100B00001DD11E488021890582680A43826082685F
:100B10001140009100998021890202680A43026015
:100B2000006801400091009810200190032002907D
:100B30000020039001A99020C00500F07FF906B0C5
:100B400010BD00688021C905884200D0704780B57B
:100B500001200B490A6802430A60096808400090B6
:100B60000098002200210F20FFF7BBFD0F20FFF7A8
:100B7000BCFD01BD1810024000740040141002407A
:100B80001C100240704770477047FEE770B586B092
:100B900000F012FA00F081F81422002101A800F000
:100BA00042F98021C9038E4802680A430260026844
:100BB0001140009100998021890202680A43026075
:100BC00002681140009100998021090302680A43DC
:100BD00002600068014000910098C024A400814E8A
:100BE00000222100300000F0D5F90194012002908C
:100BF00000250395049501A9300000F01FF9082293
:100C00000021684600F00FF9774C784860642000B6
:100C1000443000F0E1F9009501950022694620007A
:100C2000443000F0FFF91022002102A800F0FBF888
:100C300008220021684600F0F6F88020C0056060B8
:100C40004F20A060E5600C2020616561E561201DFA
:100C5000FFF770FD80204001029002A9201DFFF7E0
:100C600037FE009501956946201D00F015FA002118
:100C70002000443000F0F0F9201DFFF76AFD2088C5
:100C8000401C2080142000F02FFA0020205E5849DC
:100C90008842F4D180202080F1E738B590B030222E
:100CA000002104A800F0BFF810220021684600F0DF
:100CB000BAF80224049401200790102108910C94A2
:100CC00000250D95A02189030E910F9004A8FFF730
:100CD000F5F90720009001940295039501216846DB
:100CE000FFF7BCFB11B030BD00688021C905884208
:100CF00000D07047F8B53F4C0220205E400020181D
:100D00000421455E3C482618756137480021475E3E
:100D1000280000F05BF87843401230617D43681290
:100D200070613168B26989187160B168F2698918B7
:100D3000F160091831623148314A914205DB01689E
:100D400092090A430260022012E02E4A9142016891
:100D500006DA802252000A4302600120C04307E005
:100D6000294A0A4002600168284A0A4002600020BD
:100D7000207000202056C00370627169081AB061AB
:100D8000716840000818F0613160F068B060306947
:100D90000311002200211E4800F032F96088401C37
:100DA00060800220205EFA218900FFF74DFC6180FF
:100DB000F1BD10B51C00029B401A1B1B1B115843B0
:100DC000511A0911FFF740FC001910BD80B51149F7
:100DD0000091114B114A0B49FFF7EBFF02BD0000D8
:100DE0001410024000080048000000200074004079
:100DF000FF01000058000020D4070000140800483C
:100E0000018000000080FFFFFFFDFFFFFFFEFFFFEE
:100E10004400002057F50000A80A0000FF7F0000F2
:100E200070477047704710B50400080011000200B9
:100E3000200000F069F9200010BDFEE7FEB5002299
:100E4000012301932AE0052703E0554FB842FAD168
:100E50000327A74037432F60524C2668DC432640C7
:100E60004D68ED0300D51E434E4D2E606E68264042
:100E70004F68BF0300D51E436E60AE6826404F68C2
:100E8000FF0200D51E43AE60EE6834404E68B602E5
:100E900002D526001C003443EC60521C0C68230071
:100EA000D34076D0019B934002932340F5D0940029
:100EB0006D462C704C68022C01D0122C11D1D40834
:100EC000A40005192C6A6E4637781C263E400F2771
:100ED000B740BC430F69BC4637006646BE40264358
:100EE0002E62066854000327A740FD432E400F7969
:100EF000BF07BF0FA740374307604E68012E05D0DC
:100F0000022E03D0112E01D0122E11D186682E4050
:100F1000CF68A740374387604768029EB743BC4607
:100F20004E683709019E3E40964067463E43466004
:100F3000C66835408E68A6402E43C6604C68E40003
:100F4000ABD5194C2468019D2543174C25602468B6
:100F5000019D25400295029C144C9508AD00651931
:100F60002E686C4627780C243C400F27A740BE43D0
:100F70009027FF05B84201D100276AE70C4FB8421D
:100F800001D1019F65E70B4FB84200D05DE7022712
:100F90005FE7F7BD002A01D0816170478162704729
:100FA000000C0048000401401810024008000140F5
:100FB000000400480008004880B506480168102277
:100FC0000A4302600020FFF72DFBFFF779FD0020A8
:100FD00002BD00000020024038B5040001D101200C
:100FE00032BD00252079002803D165712000FFF76C
:100FF0007CFD02202071256101202071002032BD7E
:1010000018B500240094006800900029009801D1D0
:10101000083200E01432801800900098036000202D
:1010200012BDFEE770B54379012B01D1022070BDDE
:101030000123437102240471046825683E2696400A
:10104000B5430E68496831439140294321600371DB
:1010500000214171002070BD30B54279012A01D1D3
:10106000022030BD012242710223037103681C6813
:1010700001258D4025431D60002908D101680B68BA
:101080003C241C403C2C02D14B6813434B60027142
:1010900000214171002030BD70B53C22825C012AE4
:1010A00001D1022070BD02003C32012313700224E2
:1010B0003D254455046865687026B543656004683D
:1010C00065680E682E4366600468A5688026B5438F
:1010D000A5600468A56849682943A160FFE73D2130
:1010E00043540020107070BD31B5FFF795FA04002D
:1010F000009D0020C043854200D06D1CFFF78CFA94
:10110000001BA842FAD331BD1206130A1A43130C6E
:101110001A4300BF094205D0830705D00270401C66
:10112000491EF9D1704700001300103906D330B4BE
:101130001400150010393CC0FCD230BC490700D364
:101140000CC000D504C0890002D30280801C002995
:1011500000D502707047FEE71148016801220A437A
:10116000026041680F4A0A40426001680E4A0A4024
:10117000026001680D4A0A40026041680C4A0A4058
:101180004260C16A0F229143C162016B094A0A4061
:101190000263416B012291434163002181607047EA
:1011A000001002400CB8FFF8FFFFF6FEFFFFFBFF48
:1011B000FFFFC0FFACFEFFFF0000000000000000CA
:1011C000010203040607080930B5016841184468A4
:1011D00062088A188368E40704D54C461B1901E0AD
:1011E000641C06D191420BD00C7864B2491C0D7876
:1011F000491C1D705B1C002CF2D4641EF7D5F1E76E
:101200000C3030BD10B5074979441831064C7C4488
:10121000163404E0081D0A68891888470100A142B5
:10122000F8D110BD08000000140000009DFFFFFF72
:10123000CC000000CE0F0000000000207047FEE749
:101240007047704780B500F009F801BD80B50248CD
:10125000FFF795FA01BD0000040000200248016874
:10126000491C0160704700BF5808002000F00DF8CD
:10127000002801D0FFF7C6FF00BF00BF002000BF5D
:1012800000BFFFF783FC00F002F80120704780B533
:1012900000F002F801BDFEE70746384600F002F80C
:1012A000FBE7FEE780B500BF00BF024A110018202F
:1012B000ABBEFBE72600020001488047014800471B
:1012C00059110008C912000800BF00BF00BF00BFCD
:1012D000FFF7CCFFFEE7FEE7FEE7FEE7FEE7FEE7EF
:1012E000FEE7FEE7FEE7FEE7FEE7FEE7FEE7FEE7D6
:1012F000FEE7FEE7FEE7FEE7FEE7FEE7010001A4EA
:10130000007ECE009C016A0237030504D304A105C8
:101310006E063C070908D708A409710A3F0B0C0C9C
:10132000D90CA50D720E3E0F0B10D710A3116F1222
:101330003A130614D1149C1567163217FC17C618F9
:1013400090195A1A231BEC1BB51C7D1D451E0D1F41
:10135000D51F9C2063212A22F022B6237B2440251E
:101360000526CA268E2751281429D729992A5B2BAE
:101370001D2CDE2C9F2D5F2E1E2FDE2F9C305A3110
:10138000187E32D53292334E340A35C53580363A1E
:1013900037F337AC3864391C3AD33A8A3B403CF5D2
:1013A0003CAA3D5E3E113FC43F76402841D9418969
:1013B000423843E74395444345F0459C464747F24E
:1013C000479C484549ED49954A3C4BE24B884C2C9B
:1013D0004DD04D734E154FB74F5850F7509651356D
:1013E00052D2526F530A54A5543F55D855715608DE
:1013F000579F573458C9585D59F059825A135BA307
:101400005B7E325CC15C4E5DDB5D665EF15E7A5F89
:1014100003608B60116197611C629F622263A46309
:101420002564A4642365A1651D66996614678D67AC
:1014300006687D68F3686969DD69506AC26A336B62
:10144000A36B126C806CED6C586DC36D2C6E946E3A
:10145000FB6E616FC66F2A708D70EE704E71AE714B
:101460000C726972C4721F737873D07328747D74A0
:10147000D27426757875C97519766876B67602774E
:101480004D7E779777E07727786E78B378F7783A5C
:10149000797B79BB79FA79387A757AB07AEA7A23E6
:1014A0007B5A7B917BC67BFA7B2C7C5D7C8E7CBCE3
:1014B0007CEA7C167D417D6B7D937DBB7DE17D0566
:1014C0007E297E4B7E6C7E8B7EA97EC67EE27EFD73
:1014D0007E167F2E7F447F5A7F6E7F807F927FA211
:1014E0007FB17FBE7FCB7FD67FDF7FE87FEF7FF549
:1014F0007FF97FFC7FFE7FFF7FFE7FFC7FF97FF51A
:101500007F7EEF7FE87FDF7FD67FCB7FBE7FB17F9F
:10151000A27F927F807F6E7F5A7F447F2E7F167FCF
:10152000FD7EE27EC67EA97E8B7E6C7E4B7E297E12
:10153000057EE17DBB7D937D6B7D417D167DEA7CE3
:10154000BC7C8E7C5D7C2C7CFA7BC67B917B5A7B41
:10155000237BEA7AB07A757A387AFA79BB797B7923
:101560003A79F778B3786E782778E07797774D7780
:101570000277B67668761976C97578752675D2744D
:101580007D35742874D07378731F73C47269720CBC
:1015900072AE714E71EE708D702A70C66F616FFB06
:1015A0006E946E2C6EC36D586DED6C806C126CA3D6
:1015B0006B336BC26A506ADDFD6974F3687D68063F
:1015C000688D67146799661D66A1652365A4642507
:1015D00064A46322639F621C62976111618B600344
:1015E000607A5FF15E665EDB5D4E5DC15C325CA37E
:1015F0005B135B825AF0595D59C95834589F57089C
:10160000577156D8553F55A5540A546F53D2523589
:10161000529651F7505850B74F154F734ED04D2C2E
:101620004D884CE24B3C4B954AED4945499C48F26C
:10163000FD477E9C46F04543459544E74338438942
:1016400042D94128417640C43F113F5E3EAA3DF554
:101650003C403C8A3BD33A1C3A6439AC38F3373AC5
:10166000378036C5350A354E349233D53218325A62
:10167000319C30DE2F1E2F5F2E9F2DDE2C1D2C5B0C
:101680002B992AD729142951288E27CA26052640A6
:10169000257B24B623F0222A2263219C20D51F0D0E
:1016A0001F451E7D1DB51CEC1B231B5A1A9019C625
:1016B00018FC1B17321767169C15D11406143A1321
:1016C0006F12A311D7100B103E0F720EA50DD9FD8E
:1016D0000C1A3F0B710AA409D70809083C076E06CB
:1016E000A105D304050437036A029C01CEFD007EE8
:1016F00032FF64FE96FDC9FCFBFB2DFB5FFA92F9FD
:10170000C4F8F7F729F75CF68FF5C1F4F4F327F383
:101710005BF28EF1C2F0F5EF29EF5DEE91EDC6ECD4
:10172000FAEB2FEB64EA99E9CEE804E83AE770E6D1
:10173000A6E5DDE414E44BE383E2BBE1F3E02BE058
:1017400064DF9DDED6DD10DD4ADC85DBC0DAFBD947
:1017500036D972D8AFD7ECD629D667D5A5D4E3D37E
:1017600022D361D2A1D1E2D022D064CFA6CEE87E2E
:10177000CD2BCD6ECCB2CBF6CA3BCA80C9C6C80D44
:10178000C854C79CC6E4C52DC576C4C0C30BC35698
:10179000C2A2C1EFC03CC08ABFD8BE27BE77BDC8B9
:1017A000BC19BC6BBBBDBA10BA64B9B9B80EB86489
:1017B000B7BBB613B66BB5C4B41EB478B3D4B230ED
:1017C000B28DB1EBB049B0A8AF09AF6AAECBAD2EC8
:1017D000AD91ACF6AB5BABC1AA28AA8FA9F8A86102
:1017E000A8CCA737A7A3A610A67EA5EDA45DA47ECE
:1017F000CEA33FA3B2A225A29AA10FA186A0FD9FCE
:10180000759FEF9E699EE49D619DDE9C5C9CDB9BC9
:101810005C9BDD9A5F9AE3996799EC987398FA97C5
:1018200083970D9797962396B0953E95CD945D94AA
:10183000EE9380931393A8923D92D4916C9105916D
:101840009F903A90D68F738F128FB28E528EF48DF6
:10185000978D3C8DE18C888C308CD88B838B2E8B34
:10186000DA8A888A378AE78998894A89FE88B3574D
:101870008869882088D98792874D870987C6868599
:101880008645860686C8858B8550851685DD84A6A7
:10189000846F843A840684D483A38372834483163A
:1018A00083EA82BF8295826D8245821F82FB81D747
:1018B00081B5819481758157813A811E810381EAC6
:1018C00080D280BC80A68092FD80346E805E804F86
:1018D00080428035802A802180188011800B80070B
:1018E000800480028001800280048007800B8011C8
:1018F00080188021802A80358042804F805E806EF3
:10190000FD807E9280A680BC80D280EA8003811E0A
:10191000813A81578175819481B581D781FB811F7F
:101920008245826D829582BF82EA821683448372E9
:1019300083A383D48306843A846F84A684DD8416CB
:101940008550858B85C885068645868586C6860929
:10195000874D879287D98720886988B388FE884A0F
:10196000899889E789378A888ADA8A2E8B838BD887
:101970008B308C888CE18C3C8D978DF48D528EB29F
:101980008E127E8F738FD68F3A909F9005916C91B7
:10199000D4913D92A89213938093EE935D94CD944D
:1019A0003E95B095239697960D978397FA977398DF
:1019B000EC986799E3995F9ADD9A5C9BDB9B5C9C52
:1019C000DE9C619DE49D699EEF9E759FFD9F86A0B4
:1019D0000FA19AA125A2B2A23FA3CEA35DA4EDA41C
:1019E0007EA510A6A3A637A7CCA761A8F8A88FA9A3
:1019F00028AAC1AA5BABF6AB91AC2EADCBAD6AAE5B
:101A000009AF7EA8AF49B0EBB08DB130B2D4B27897
:101A1000B31EB4C4B46BB513B6BBB664B70EB8B9D5
:101A2000B864B910BABDBA6BBB19BCC8BC77BD27C6
:101A3000BED8BE8ABF3CC0EFC0A2C156C20BC3C055
:101A4000C376C42DC5E4C59CC654C70DC8C6C8809E
:101A5000C93BCAF6CAB2CB6ECC2BCDE8CDA6CE64BC
:101A6000CF22D0E2D0A1D161D222D3E3D3A5D467D3
:101A7000D529D6ECD6AFD772D836D9FBD9C0DA85FE
:101A8000DB4A43DC10DDD6DD9DDE64DF2BE0F3E0D6
:101A9000BBE183E24BE314E4DDE4A6E570E63AE75C
:101AA00004E8CEE899E964EA2FEBFAEBC6EC91ED95
:101AB0005DEE29EFF5EFC2F08EF15BF227F3F4F360
:101AC000C1F48FF55CF629FDF706C4F892F95FFAC8
:101AD0002DFDFB07C9FC96FD64FE32FFD700011205
:031AE0007AFB008E
:04000005080012C914
:00000001FF
